{
  "_format": "hh-sol-artifact-1",
  "contractName": "Tip",
  "sourceName": "contracts/Tip.sol",
  "abi": [
    {
      "inputs": [
        {
          "internalType": "address",
          "name": "manager",
          "type": "address"
        }
      ],
      "stateMutability": "payable",
      "type": "constructor"
    },
    {
      "anonymous": false,
      "inputs": [
        {
          "indexed": false,
          "internalType": "uint256",
          "name": "amount",
          "type": "uint256"
        },
        {
          "indexed": false,
          "internalType": "bytes32",
          "name": "identifier",
          "type": "bytes32"
        },
        {
          "indexed": false,
          "internalType": "address",
          "name": "wallet",
          "type": "address"
        },
        {
          "indexed": false,
          "internalType": "uint256",
          "name": "when",
          "type": "uint256"
        }
      ],
      "name": "Deposit",
      "type": "event"
    },
    {
      "anonymous": false,
      "inputs": [
        {
          "indexed": false,
          "internalType": "bytes32",
          "name": "sender",
          "type": "bytes32"
        },
        {
          "indexed": false,
          "internalType": "bytes32",
          "name": "recipient",
          "type": "bytes32"
        },
        {
          "indexed": false,
          "internalType": "uint256",
          "name": "amount",
          "type": "uint256"
        }
      ],
      "name": "Tipped",
      "type": "event"
    },
    {
      "anonymous": false,
      "inputs": [
        {
          "indexed": false,
          "internalType": "uint256",
          "name": "amount",
          "type": "uint256"
        },
        {
          "indexed": false,
          "internalType": "bytes32",
          "name": "identifier",
          "type": "bytes32"
        },
        {
          "indexed": false,
          "internalType": "address",
          "name": "wallet",
          "type": "address"
        },
        {
          "indexed": false,
          "internalType": "uint256",
          "name": "when",
          "type": "uint256"
        }
      ],
      "name": "Withdrawal",
      "type": "event"
    },
    {
      "inputs": [
        {
          "internalType": "address",
          "name": "manager",
          "type": "address"
        }
      ],
      "name": "addManager",
      "outputs": [],
      "stateMutability": "nonpayable",
      "type": "function"
    },
    {
      "inputs": [
        {
          "internalType": "bytes32",
          "name": "",
          "type": "bytes32"
        }
      ],
      "name": "balances",
      "outputs": [
        {
          "internalType": "uint256",
          "name": "",
          "type": "uint256"
        }
      ],
      "stateMutability": "view",
      "type": "function"
    },
    {
      "inputs": [],
      "name": "collectFees",
      "outputs": [],
      "stateMutability": "nonpayable",
      "type": "function"
    },
    {
      "inputs": [
        {
          "internalType": "bytes32",
          "name": "identifier",
          "type": "bytes32"
        }
      ],
      "name": "deleteRegistration",
      "outputs": [],
      "stateMutability": "nonpayable",
      "type": "function"
    },
    {
      "inputs": [
        {
          "internalType": "bytes32",
          "name": "identifier",
          "type": "bytes32"
        }
      ],
      "name": "deposit",
      "outputs": [],
      "stateMutability": "payable",
      "type": "function"
    },
    {
      "inputs": [
        {
          "internalType": "bytes32",
          "name": "identifier",
          "type": "bytes32"
        }
      ],
      "name": "getBalance",
      "outputs": [
        {
          "internalType": "uint256",
          "name": "",
          "type": "uint256"
        }
      ],
      "stateMutability": "view",
      "type": "function"
    },
    {
      "inputs": [],
      "name": "getDepositFee",
      "outputs": [
        {
          "internalType": "uint256",
          "name": "",
          "type": "uint256"
        }
      ],
      "stateMutability": "view",
      "type": "function"
    },
    {
      "inputs": [
        {
          "internalType": "address",
          "name": "wallet",
          "type": "address"
        }
      ],
      "name": "getIdentifiers",
      "outputs": [
        {
          "internalType": "bytes32[]",
          "name": "",
          "type": "bytes32[]"
        }
      ],
      "stateMutability": "view",
      "type": "function"
    },
    {
      "inputs": [],
      "name": "getWithdrawFee",
      "outputs": [
        {
          "internalType": "uint256",
          "name": "",
          "type": "uint256"
        }
      ],
      "stateMutability": "view",
      "type": "function"
    },
    {
      "inputs": [
        {
          "internalType": "address",
          "name": "",
          "type": "address"
        },
        {
          "internalType": "uint256",
          "name": "",
          "type": "uint256"
        }
      ],
      "name": "identifiers",
      "outputs": [
        {
          "internalType": "bytes32",
          "name": "",
          "type": "bytes32"
        }
      ],
      "stateMutability": "view",
      "type": "function"
    },
    {
      "inputs": [
        {
          "internalType": "uint256",
          "name": "",
          "type": "uint256"
        }
      ],
      "name": "managers",
      "outputs": [
        {
          "internalType": "address",
          "name": "",
          "type": "address"
        }
      ],
      "stateMutability": "view",
      "type": "function"
    },
    {
      "inputs": [],
      "name": "owner",
      "outputs": [
        {
          "internalType": "address payable",
          "name": "",
          "type": "address"
        }
      ],
      "stateMutability": "view",
      "type": "function"
    },
    {
      "inputs": [
        {
          "internalType": "bytes32",
          "name": "identifier",
          "type": "bytes32"
        },
        {
          "internalType": "address payable",
          "name": "wallet",
          "type": "address"
        }
      ],
      "name": "register",
      "outputs": [],
      "stateMutability": "nonpayable",
      "type": "function"
    },
    {
      "inputs": [
        {
          "internalType": "address",
          "name": "manager",
          "type": "address"
        }
      ],
      "name": "removeManager",
      "outputs": [],
      "stateMutability": "nonpayable",
      "type": "function"
    },
    {
      "inputs": [
        {
          "internalType": "uint256",
          "name": "fee",
          "type": "uint256"
        }
      ],
      "name": "setDepositFee",
      "outputs": [],
      "stateMutability": "nonpayable",
      "type": "function"
    },
    {
      "inputs": [
        {
          "internalType": "uint256",
          "name": "fee",
          "type": "uint256"
        }
      ],
      "name": "setWithdrawFee",
      "outputs": [],
      "stateMutability": "nonpayable",
      "type": "function"
    },
    {
      "inputs": [
        {
          "internalType": "bytes32",
          "name": "sender",
          "type": "bytes32"
        },
        {
          "internalType": "bytes32",
          "name": "recipient",
          "type": "bytes32"
        },
        {
          "internalType": "uint256",
          "name": "amount",
          "type": "uint256"
        }
      ],
      "name": "tip",
      "outputs": [],
      "stateMutability": "nonpayable",
      "type": "function"
    },
    {
      "inputs": [
        {
          "internalType": "address",
          "name": "newOwner",
          "type": "address"
        }
      ],
      "name": "transferOwnership",
      "outputs": [],
      "stateMutability": "nonpayable",
      "type": "function"
    },
    {
      "inputs": [
        {
          "internalType": "bytes32",
          "name": "identifier",
          "type": "bytes32"
        },
        {
          "internalType": "address payable",
          "name": "newWallet",
          "type": "address"
        }
      ],
      "name": "transferRegistration",
      "outputs": [],
      "stateMutability": "nonpayable",
      "type": "function"
    },
    {
      "inputs": [
        {
          "internalType": "bytes32",
          "name": "",
          "type": "bytes32"
        }
      ],
      "name": "wallets",
      "outputs": [
        {
          "internalType": "address payable",
          "name": "",
          "type": "address"
        }
      ],
      "stateMutability": "view",
      "type": "function"
    },
    {
      "inputs": [
        {
          "internalType": "bytes32",
          "name": "identifier",
          "type": "bytes32"
        },
        {
          "internalType": "uint256",
          "name": "amount",
          "type": "uint256"
        }
      ],
      "name": "withdraw",
      "outputs": [],
      "stateMutability": "payable",
      "type": "function"
    }
  ],
  "bytecode": "0x6080604052604051612ac1380380612ac18339818101604052810190610025919061014a565b33600060016101000a81548173ffffffffffffffffffffffffffffffffffffffff021916908373ffffffffffffffffffffffffffffffffffffffff1602179055506001819080600181540180825580915050600190039060005260206000200160009091909190916101000a81548173ffffffffffffffffffffffffffffffffffffffff021916908373ffffffffffffffffffffffffffffffffffffffff16021790555060006005819055506000600681905550600060078190555050610177565b600080fd5b600073ffffffffffffffffffffffffffffffffffffffff82169050919050565b6000610117826100ec565b9050919050565b6101278161010c565b811461013257600080fd5b50565b6000815190506101448161011e565b92915050565b6000602082840312156101605761015f6100e7565b5b600061016e84828501610135565b91505092915050565b61293b806101866000396000f3fe60806040526004361061012a5760003560e01c806381767aed116100ab578063ac18de431161006f578063ac18de4314610407578063b214faa514610430578063b6ac642a1461044c578063c879657214610475578063d22057a91461048c578063f2fde38b146104b55761012a565b806381767aed146102fc57806382b44c46146103395780638909aa3f146103625780638da5cb5b1461039f5780638e739461146103ca5761012a565b80632d06177a116100f25780632d06177a146102075780633bcfe0d3146102305780633d39c26014610259578063490ae210146102965780636c523367146102bf5761012a565b8063040cf0201461012f578063060058621461014b5780630de705b51461017457806313feefc21461019f5780631540aa89146101dc575b600080fd5b61014960048036038101906101449190611e55565b6104de565b005b34801561015757600080fd5b50610172600480360381019061016d9190611e95565b610839565b005b34801561018057600080fd5b50610189610ace565b6040516101969190611ef7565b60405180910390f35b3480156101ab57600080fd5b506101c660048036038101906101c19190611f12565b610ad8565b6040516101d39190611f80565b60405180910390f35b3480156101e857600080fd5b506101f1610b0b565b6040516101fe9190611ef7565b60405180910390f35b34801561021357600080fd5b5061022e60048036038101906102299190611fd9565b610b15565b005b34801561023c57600080fd5b5061025760048036038101906102529190612032565b610c0b565b005b34801561026557600080fd5b50610280600480360381019061027b9190612072565b610f98565b60405161028d91906120ae565b60405180910390f35b3480156102a257600080fd5b506102bd60048036038101906102b89190612072565b610fd7565b005b3480156102cb57600080fd5b506102e660048036038101906102e191906120c9565b611071565b6040516102f39190612118565b60405180910390f35b34801561030857600080fd5b50610323600480360381019061031e9190611fd9565b6110a2565b60405161033091906121f1565b60405180910390f35b34801561034557600080fd5b50610360600480360381019061035b9190611f12565b611139565b005b34801561036e57600080fd5b5061038960048036038101906103849190611f12565b611460565b6040516103969190611ef7565b60405180910390f35b3480156103ab57600080fd5b506103b4611478565b6040516103c19190611f80565b60405180910390f35b3480156103d657600080fd5b506103f160048036038101906103ec9190611f12565b61149e565b6040516103fe9190611ef7565b60405180910390f35b34801561041357600080fd5b5061042e60048036038101906104299190611fd9565b6114f2565b005b61044a60048036038101906104459190611f12565b61170a565b005b34801561045857600080fd5b50610473600480360381019061046e9190612072565b6117e6565b005b34801561048157600080fd5b5061048a611880565b005b34801561049857600080fd5b506104b360048036038101906104ae9190612032565b611a72565b005b3480156104c157600080fd5b506104dc60048036038101906104d79190611fd9565b611d10565b005b60008054906101000a900460ff161561052c576040517f08c379a000000000000000000000000000000000000000000000000000000000815260040161052390612270565b60405180910390fd5b60016000806101000a81548160ff02191690831515021790555060065434101561058b576040517f08c379a0000000000000000000000000000000000000000000000000000000008152600401610582906122dc565b60405180910390fd5b3373ffffffffffffffffffffffffffffffffffffffff166002600084815260200190815260200160002060009054906101000a900473ffffffffffffffffffffffffffffffffffffffff1673ffffffffffffffffffffffffffffffffffffffff161461062c576040517f08c379a00000000000000000000000000000000000000000000000000000000081526004016106239061236e565b60405180910390fd5b60006004600084815260200190815260200160002054905081811015610687576040517f08c379a000000000000000000000000000000000000000000000000000000000815260040161067e906123da565b60405180910390fd5b816004600085815260200190815260200160002060008282546106aa9190612429565b9250508190555034600760008282546106c3919061245d565b925050819055507f0f56123b2939c3f4929085f7992d556a2647e0fa243d4f9ef4357c242fc9c0b381846002600087815260200190815260200160002060009054906101000a900473ffffffffffffffffffffffffffffffffffffffff164260405161073294939291906124f0565b60405180910390a160006002600085815260200190815260200160002060009054906101000a900473ffffffffffffffffffffffffffffffffffffffff1673ffffffffffffffffffffffffffffffffffffffff168360405161079390612566565b60006040518083038185875af1925050503d80600081146107d0576040519150601f19603f3d011682016040523d82523d6000602084013e6107d5565b606091505b5050905080610819576040517f08c379a0000000000000000000000000000000000000000000000000000000008152600401610810906125c7565b60405180910390fd5b505060008060006101000a81548160ff0219169083151502179055505050565b60008060019054906101000a900473ffffffffffffffffffffffffffffffffffffffff1673ffffffffffffffffffffffffffffffffffffffff163373ffffffffffffffffffffffffffffffffffffffff160361089457600190505b3373ffffffffffffffffffffffffffffffffffffffff166002600086815260200190815260200160002060009054906101000a900473ffffffffffffffffffffffffffffffffffffffff1673ffffffffffffffffffffffffffffffffffffffff16036108ff57600190505b60005b81158015610914575060018054905081105b156109a2573373ffffffffffffffffffffffffffffffffffffffff1660018281548110610944576109436125e7565b5b9060005260206000200160009054906101000a900473ffffffffffffffffffffffffffffffffffffffff1673ffffffffffffffffffffffffffffffffffffffff160361098f57600191505b808061099a90612616565b915050610902565b50806109e3576040517f08c379a00000000000000000000000000000000000000000000000000000000081526004016109da906126aa565b60405180910390fd5b8160046000868152602001908152602001600020541015610a39576040517f08c379a0000000000000000000000000000000000000000000000000000000008152600401610a30906123da565b60405180910390fd5b81600460008681526020019081526020016000206000828254610a5c9190612429565b9250508190555081600460008581526020019081526020016000206000828254610a86919061245d565b925050819055507f752f0a13e35b96c394afdf8d49cf8479005b4e268c5ff6aa22f3f8b543fcb58e848484604051610ac0939291906126ca565b60405180910390a150505050565b6000600554905090565b60026020528060005260406000206000915054906101000a900473ffffffffffffffffffffffffffffffffffffffff1681565b6000600654905090565b600060019054906101000a900473ffffffffffffffffffffffffffffffffffffffff1673ffffffffffffffffffffffffffffffffffffffff163373ffffffffffffffffffffffffffffffffffffffff1614610ba5576040517f08c379a0000000000000000000000000000000000000000000000000000000008152600401610b9c9061274d565b60405180910390fd5b6001819080600181540180825580915050600190039060005260206000200160009091909190916101000a81548173ffffffffffffffffffffffffffffffffffffffff021916908373ffffffffffffffffffffffffffffffffffffffff16021790555050565b3373ffffffffffffffffffffffffffffffffffffffff166002600084815260200190815260200160002060009054906101000a900473ffffffffffffffffffffffffffffffffffffffff1673ffffffffffffffffffffffffffffffffffffffff1614610cac576040517f08c379a0000000000000000000000000000000000000000000000000000000008152600401610ca39061236e565b60405180910390fd5b806002600084815260200190815260200160002060006101000a81548173ffffffffffffffffffffffffffffffffffffffff021916908373ffffffffffffffffffffffffffffffffffffffff160217905550600360008273ffffffffffffffffffffffffffffffffffffffff1673ffffffffffffffffffffffffffffffffffffffff16815260200190815260200160002082908060018154018082558091505060019003906000526020600020016000909190919091505560005b600360003373ffffffffffffffffffffffffffffffffffffffff1673ffffffffffffffffffffffffffffffffffffffff16815260200190815260200160002080549050811015610f935782600360003373ffffffffffffffffffffffffffffffffffffffff1673ffffffffffffffffffffffffffffffffffffffff1681526020019081526020016000208281548110610e0357610e026125e7565b5b906000526020600020015403610f8657600360003373ffffffffffffffffffffffffffffffffffffffff1673ffffffffffffffffffffffffffffffffffffffff1681526020019081526020016000206001600360003373ffffffffffffffffffffffffffffffffffffffff1673ffffffffffffffffffffffffffffffffffffffff16815260200190815260200160002080549050610ea19190612429565b81548110610eb257610eb16125e7565b5b9060005260206000200154600360003373ffffffffffffffffffffffffffffffffffffffff1673ffffffffffffffffffffffffffffffffffffffff1681526020019081526020016000208281548110610f0e57610f0d6125e7565b5b9060005260206000200181905550600360003373ffffffffffffffffffffffffffffffffffffffff1673ffffffffffffffffffffffffffffffffffffffff168152602001908152602001600020805480610f6b57610f6a61276d565b5b60019003818190600052602060002001600090559055610f93565b8080600101915050610d67565b505050565b60018181548110610fa857600080fd5b906000526020600020016000915054906101000a900473ffffffffffffffffffffffffffffffffffffffff1681565b600060019054906101000a900473ffffffffffffffffffffffffffffffffffffffff1673ffffffffffffffffffffffffffffffffffffffff163373ffffffffffffffffffffffffffffffffffffffff1614611067576040517f08c379a000000000000000000000000000000000000000000000000000000000815260040161105e9061274d565b60405180910390fd5b8060058190555050565b6003602052816000526040600020818154811061108d57600080fd5b90600052602060002001600091509150505481565b6060600360008373ffffffffffffffffffffffffffffffffffffffff1673ffffffffffffffffffffffffffffffffffffffff16815260200190815260200160002080548060200260200160405190810160405280929190818152602001828054801561112d57602002820191906000526020600020905b815481526020019060010190808311611119575b50505050509050919050565b3373ffffffffffffffffffffffffffffffffffffffff166002600083815260200190815260200160002060009054906101000a900473ffffffffffffffffffffffffffffffffffffffff1673ffffffffffffffffffffffffffffffffffffffff16146111da576040517f08c379a00000000000000000000000000000000000000000000000000000000081526004016111d19061236e565b60405180910390fd5b60006002600083815260200190815260200160002060006101000a81548173ffffffffffffffffffffffffffffffffffffffff021916908373ffffffffffffffffffffffffffffffffffffffff16021790555060005b600360003373ffffffffffffffffffffffffffffffffffffffff1673ffffffffffffffffffffffffffffffffffffffff1681526020019081526020016000208054905081101561145c5781600360003373ffffffffffffffffffffffffffffffffffffffff1673ffffffffffffffffffffffffffffffffffffffff16815260200190815260200160002082815481106112cc576112cb6125e7565b5b90600052602060002001540361144f57600360003373ffffffffffffffffffffffffffffffffffffffff1673ffffffffffffffffffffffffffffffffffffffff1681526020019081526020016000206001600360003373ffffffffffffffffffffffffffffffffffffffff1673ffffffffffffffffffffffffffffffffffffffff1681526020019081526020016000208054905061136a9190612429565b8154811061137b5761137a6125e7565b5b9060005260206000200154600360003373ffffffffffffffffffffffffffffffffffffffff1673ffffffffffffffffffffffffffffffffffffffff16815260200190815260200160002082815481106113d7576113d66125e7565b5b9060005260206000200181905550600360003373ffffffffffffffffffffffffffffffffffffffff1673ffffffffffffffffffffffffffffffffffffffff1681526020019081526020016000208054806114345761143361276d565b5b6001900381819060005260206000200160009055905561145c565b8080600101915050611230565b5050565b60046020528060005260406000206000915090505481565b600060019054906101000a900473ffffffffffffffffffffffffffffffffffffffff1681565b60006002600083815260200190815260200160002060009054906101000a900473ffffffffffffffffffffffffffffffffffffffff1673ffffffffffffffffffffffffffffffffffffffff16319050919050565b600060019054906101000a900473ffffffffffffffffffffffffffffffffffffffff1673ffffffffffffffffffffffffffffffffffffffff163373ffffffffffffffffffffffffffffffffffffffff1614611582576040517f08c379a00000000000000000000000000000000000000000000000000000000081526004016115799061274d565b60405180910390fd5b60005b600180549050811015611706578173ffffffffffffffffffffffffffffffffffffffff16600182815481106115bd576115bc6125e7565b5b9060005260206000200160009054906101000a900473ffffffffffffffffffffffffffffffffffffffff1673ffffffffffffffffffffffffffffffffffffffff16036116f95760018080805490506116159190612429565b81548110611626576116256125e7565b5b9060005260206000200160009054906101000a900473ffffffffffffffffffffffffffffffffffffffff1660018281548110611665576116646125e7565b5b9060005260206000200160006101000a81548173ffffffffffffffffffffffffffffffffffffffff021916908373ffffffffffffffffffffffffffffffffffffffff16021790555060018054806116bf576116be61276d565b5b6001900381819060005260206000200160006101000a81549073ffffffffffffffffffffffffffffffffffffffff02191690559055611706565b8080600101915050611585565b5050565b600554341161174e576040517f08c379a00000000000000000000000000000000000000000000000000000000081526004016117459061280e565b60405180910390fd5b60006005543461175e9190612429565b905060055460076000828254611774919061245d565b925050819055507f82fab807479f825b47305557f3f090effd2a61b5d5b21499b089e3aa7833647d818333426040516117b0949392919061282e565b60405180910390a1806004600084815260200190815260200160002060008282546117db919061245d565b925050819055505050565b600060019054906101000a900473ffffffffffffffffffffffffffffffffffffffff1673ffffffffffffffffffffffffffffffffffffffff163373ffffffffffffffffffffffffffffffffffffffff1614611876576040517f08c379a000000000000000000000000000000000000000000000000000000000815260040161186d9061274d565b60405180910390fd5b8060068190555050565b60008054906101000a900460ff16156118ce576040517f08c379a00000000000000000000000000000000000000000000000000000000081526004016118c590612270565b60405180910390fd5b60016000806101000a81548160ff021916908315150217905550600060019054906101000a900473ffffffffffffffffffffffffffffffffffffffff1673ffffffffffffffffffffffffffffffffffffffff163373ffffffffffffffffffffffffffffffffffffffff1614611978576040517f08c379a000000000000000000000000000000000000000000000000000000000815260040161196f9061274d565b60405180910390fd5b60006007549050600060078190555060008060019054906101000a900473ffffffffffffffffffffffffffffffffffffffff1673ffffffffffffffffffffffffffffffffffffffff16826040516119ce90612566565b60006040518083038185875af1925050503d8060008114611a0b576040519150601f19603f3d011682016040523d82523d6000602084013e611a10565b606091505b5050905080611a54576040517f08c379a0000000000000000000000000000000000000000000000000000000008152600401611a4b906125c7565b60405180910390fd5b505060008060006101000a81548160ff021916908315150217905550565b60008060019054906101000a900473ffffffffffffffffffffffffffffffffffffffff1673ffffffffffffffffffffffffffffffffffffffff163373ffffffffffffffffffffffffffffffffffffffff1603611acd57600190505b60005b81158015611ae2575060018054905081105b15611b70573373ffffffffffffffffffffffffffffffffffffffff1660018281548110611b1257611b116125e7565b5b9060005260206000200160009054906101000a900473ffffffffffffffffffffffffffffffffffffffff1673ffffffffffffffffffffffffffffffffffffffff1603611b5d57600191505b8080611b6890612616565b915050611ad0565b5080611bb1576040517f08c379a0000000000000000000000000000000000000000000000000000000008152600401611ba8906126aa565b60405180910390fd5b600073ffffffffffffffffffffffffffffffffffffffff166002600085815260200190815260200160002060009054906101000a900473ffffffffffffffffffffffffffffffffffffffff1673ffffffffffffffffffffffffffffffffffffffff1614611c53576040517f08c379a0000000000000000000000000000000000000000000000000000000008152600401611c4a906128e5565b60405180910390fd5b816002600085815260200190815260200160002060006101000a81548173ffffffffffffffffffffffffffffffffffffffff021916908373ffffffffffffffffffffffffffffffffffffffff160217905550600360008373ffffffffffffffffffffffffffffffffffffffff1673ffffffffffffffffffffffffffffffffffffffff168152602001908152602001600020839080600181540180825580915050600190039060005260206000200160009091909190915055505050565b600060019054906101000a900473ffffffffffffffffffffffffffffffffffffffff1673ffffffffffffffffffffffffffffffffffffffff163373ffffffffffffffffffffffffffffffffffffffff1614611da0576040517f08c379a0000000000000000000000000000000000000000000000000000000008152600401611d979061274d565b60405180910390fd5b80600060016101000a81548173ffffffffffffffffffffffffffffffffffffffff021916908373ffffffffffffffffffffffffffffffffffffffff16021790555050565b600080fd5b6000819050919050565b611dfc81611de9565b8114611e0757600080fd5b50565b600081359050611e1981611df3565b92915050565b6000819050919050565b611e3281611e1f565b8114611e3d57600080fd5b50565b600081359050611e4f81611e29565b92915050565b60008060408385031215611e6c57611e6b611de4565b5b6000611e7a85828601611e0a565b9250506020611e8b85828601611e40565b9150509250929050565b600080600060608486031215611eae57611ead611de4565b5b6000611ebc86828701611e0a565b9350506020611ecd86828701611e0a565b9250506040611ede86828701611e40565b9150509250925092565b611ef181611e1f565b82525050565b6000602082019050611f0c6000830184611ee8565b92915050565b600060208284031215611f2857611f27611de4565b5b6000611f3684828501611e0a565b91505092915050565b600073ffffffffffffffffffffffffffffffffffffffff82169050919050565b6000611f6a82611f3f565b9050919050565b611f7a81611f5f565b82525050565b6000602082019050611f956000830184611f71565b92915050565b6000611fa682611f3f565b9050919050565b611fb681611f9b565b8114611fc157600080fd5b50565b600081359050611fd381611fad565b92915050565b600060208284031215611fef57611fee611de4565b5b6000611ffd84828501611fc4565b91505092915050565b61200f81611f5f565b811461201a57600080fd5b50565b60008135905061202c81612006565b92915050565b6000806040838503121561204957612048611de4565b5b600061205785828601611e0a565b92505060206120688582860161201d565b9150509250929050565b60006020828403121561208857612087611de4565b5b600061209684828501611e40565b91505092915050565b6120a881611f9b565b82525050565b60006020820190506120c3600083018461209f565b92915050565b600080604083850312156120e0576120df611de4565b5b60006120ee85828601611fc4565b92505060206120ff85828601611e40565b9150509250929050565b61211281611de9565b82525050565b600060208201905061212d6000830184612109565b92915050565b600081519050919050565b600082825260208201905092915050565b6000819050602082019050919050565b61216881611de9565b82525050565b600061217a838361215f565b60208301905092915050565b6000602082019050919050565b600061219e82612133565b6121a8818561213e565b93506121b38361214f565b8060005b838110156121e45781516121cb888261216e565b97506121d683612186565b9250506001810190506121b7565b5085935050505092915050565b6000602082019050818103600083015261220b8184612193565b905092915050565b600082825260208201905092915050565b7f5265656e7472616e742063616c6c000000000000000000000000000000000000600082015250565b600061225a600e83612213565b915061226582612224565b602082019050919050565b600060208201905081810360008301526122898161224d565b9050919050565b7f496e73756666696369656e742077697468647261772066656500000000000000600082015250565b60006122c6601983612213565b91506122d182612290565b602082019050919050565b600060208201905081810360008301526122f5816122b9565b9050919050565b7f596f75206172656e27742074686520726567697374657265642077616c6c657460008201527f2100000000000000000000000000000000000000000000000000000000000000602082015250565b6000612358602183612213565b9150612363826122fc565b604082019050919050565b600060208201905081810360008301526123878161234b565b9050919050565b7f496e73756666696369656e742062616c616e6365000000000000000000000000600082015250565b60006123c4601483612213565b91506123cf8261238e565b602082019050919050565b600060208201905081810360008301526123f3816123b7565b9050919050565b7f4e487b7100000000000000000000000000000000000000000000000000000000600052601160045260246000fd5b600061243482611e1f565b915061243f83611e1f565b9250828203905081811115612457576124566123fa565b5b92915050565b600061246882611e1f565b915061247383611e1f565b925082820190508082111561248b5761248a6123fa565b5b92915050565b6000819050919050565b60006124b66124b16124ac84611f3f565b612491565b611f3f565b9050919050565b60006124c88261249b565b9050919050565b60006124da826124bd565b9050919050565b6124ea816124cf565b82525050565b60006080820190506125056000830187611ee8565b6125126020830186612109565b61251f60408301856124e1565b61252c6060830184611ee8565b95945050505050565b600081905092915050565b50565b6000612550600083612535565b915061255b82612540565b600082019050919050565b600061257182612543565b9150819050919050565b7f5472616e73666572206661696c65640000000000000000000000000000000000600082015250565b60006125b1600f83612213565b91506125bc8261257b565b602082019050919050565b600060208201905081810360008301526125e0816125a4565b9050919050565b7f4e487b7100000000000000000000000000000000000000000000000000000000600052603260045260246000fd5b600061262182611e1f565b91507fffffffffffffffffffffffffffffffffffffffffffffffffffffffffffffffff8203612653576126526123fa565b5b600182019050919050565b7f596f75206172656e2774206120636f6e7472616374206d616e61676572210000600082015250565b6000612694601e83612213565b915061269f8261265e565b602082019050919050565b600060208201905081810360008301526126c381612687565b9050919050565b60006060820190506126df6000830186612109565b6126ec6020830185612109565b6126f96040830184611ee8565b949350505050565b7f596f75206172656e27742074686520636f6e7472616374206f776e6572210000600082015250565b6000612737601e83612213565b915061274282612701565b602082019050919050565b600060208201905081810360008301526127668161272a565b9050919050565b7f4e487b7100000000000000000000000000000000000000000000000000000000600052603160045260246000fd5b7f4465706f736974206d7573742062652067726561746572207468616e2064657060008201527f6f73697420666565000000000000000000000000000000000000000000000000602082015250565b60006127f8602883612213565b91506128038261279c565b604082019050919050565b60006020820190508181036000830152612827816127eb565b9050919050565b60006080820190506128436000830187611ee8565b6128506020830186612109565b61285d604083018561209f565b61286a6060830184611ee8565b95945050505050565b7f4d616e61676572732063616e6e6f74206368616e67652072656769737465726560008201527f642077616c6c6574732100000000000000000000000000000000000000000000602082015250565b60006128cf602a83612213565b91506128da82612873565b604082019050919050565b600060208201905081810360008301526128fe816128c2565b905091905056fea2646970667358221220520226d6d98c4435b141ac2a3d1e8114a148b0c4e5e26c69536d4914faad58ac64736f6c634300081c0033",
  "linkReferences": {},
  "deployedLinkReferences": {}
}